{
    "_format": "hh-sol-artifact-1",
    "contractName": "MyNFT",
    "sourceName": "contracts/myNFT.sol",
    "abi": [
        {
            "inputs": [],
            "stateMutability": "nonpayable",
            "type": "constructor"
        },
        {
            "anonymous": false,
            "inputs": [
                {
                    "indexed": true,
                    "internalType": "address",
                    "name": "owner",
                    "type": "address"
                },
                {
                    "indexed": true,
                    "internalType": "address",
                    "name": "approved",
                    "type": "address"
                },
                {
                    "indexed": true,
                    "internalType": "uint256",
                    "name": "tokenId",
                    "type": "uint256"
                }
            ],
            "name": "Approval",
            "type": "event"
        },
        {
            "anonymous": false,
            "inputs": [
                {
                    "indexed": true,
                    "internalType": "address",
                    "name": "owner",
                    "type": "address"
                },
                {
                    "indexed": true,
                    "internalType": "address",
                    "name": "operator",
                    "type": "address"
                },
                {
                    "indexed": false,
                    "internalType": "bool",
                    "name": "approved",
                    "type": "bool"
                }
            ],
            "name": "ApprovalForAll",
            "type": "event"
        },
        {
            "anonymous": false,
            "inputs": [
                {
                    "indexed": false,
                    "internalType": "address",
                    "name": "sender",
                    "type": "address"
                },
                {
                    "indexed": false,
                    "internalType": "uint256",
                    "name": "tokenId",
                    "type": "uint256"
                }
            ],
            "name": "NewEpicNFTMinted",
            "type": "event"
        },
        {
            "anonymous": false,
            "inputs": [
                {
                    "indexed": true,
                    "internalType": "address",
                    "name": "from",
                    "type": "address"
                },
                {
                    "indexed": true,
                    "internalType": "address",
                    "name": "to",
                    "type": "address"
                },
                {
                    "indexed": true,
                    "internalType": "uint256",
                    "name": "tokenId",
                    "type": "uint256"
                }
            ],
            "name": "Transfer",
            "type": "event"
        },
        {
            "inputs": [],
            "name": "NFT_AMOUNT",
            "outputs": [
                {
                    "internalType": "uint256",
                    "name": "",
                    "type": "uint256"
                }
            ],
            "stateMutability": "view",
            "type": "function"
        },
        {
            "inputs": [
                {
                    "internalType": "address",
                    "name": "to",
                    "type": "address"
                },
                {
                    "internalType": "uint256",
                    "name": "tokenId",
                    "type": "uint256"
                }
            ],
            "name": "approve",
            "outputs": [],
            "stateMutability": "nonpayable",
            "type": "function"
        },
        {
            "inputs": [
                {
                    "internalType": "address",
                    "name": "owner",
                    "type": "address"
                }
            ],
            "name": "balanceOf",
            "outputs": [
                {
                    "internalType": "uint256",
                    "name": "",
                    "type": "uint256"
                }
            ],
            "stateMutability": "view",
            "type": "function"
        },
        {
            "inputs": [
                {
                    "internalType": "uint256",
                    "name": "tokenId",
                    "type": "uint256"
                }
            ],
            "name": "getApproved",
            "outputs": [
                {
                    "internalType": "address",
                    "name": "",
                    "type": "address"
                }
            ],
            "stateMutability": "view",
            "type": "function"
        },
        {
            "inputs": [],
            "name": "getTotalNFTsMintedSoFar",
            "outputs": [
                {
                    "internalType": "uint256",
                    "name": "",
                    "type": "uint256"
                }
            ],
            "stateMutability": "view",
            "type": "function"
        },
        {
            "inputs": [
                {
                    "internalType": "address",
                    "name": "owner",
                    "type": "address"
                },
                {
                    "internalType": "address",
                    "name": "operator",
                    "type": "address"
                }
            ],
            "name": "isApprovedForAll",
            "outputs": [
                {
                    "internalType": "bool",
                    "name": "",
                    "type": "bool"
                }
            ],
            "stateMutability": "view",
            "type": "function"
        },
        {
            "inputs": [],
            "name": "makeAnEpicNFT",
            "outputs": [],
            "stateMutability": "nonpayable",
            "type": "function"
        },
        {
            "inputs": [],
            "name": "mintedNFT",
            "outputs": [
                {
                    "internalType": "uint256",
                    "name": "",
                    "type": "uint256"
                }
            ],
            "stateMutability": "view",
            "type": "function"
        },
        {
            "inputs": [],
            "name": "name",
            "outputs": [
                {
                    "internalType": "string",
                    "name": "",
                    "type": "string"
                }
            ],
            "stateMutability": "view",
            "type": "function"
        },
        {
            "inputs": [
                {
                    "internalType": "uint256",
                    "name": "tokenId",
                    "type": "uint256"
                }
            ],
            "name": "ownerOf",
            "outputs": [
                {
                    "internalType": "address",
                    "name": "",
                    "type": "address"
                }
            ],
            "stateMutability": "view",
            "type": "function"
        },
        {
            "inputs": [
                {
                    "internalType": "address",
                    "name": "from",
                    "type": "address"
                },
                {
                    "internalType": "address",
                    "name": "to",
                    "type": "address"
                },
                {
                    "internalType": "uint256",
                    "name": "tokenId",
                    "type": "uint256"
                }
            ],
            "name": "safeTransferFrom",
            "outputs": [],
            "stateMutability": "nonpayable",
            "type": "function"
        },
        {
            "inputs": [
                {
                    "internalType": "address",
                    "name": "from",
                    "type": "address"
                },
                {
                    "internalType": "address",
                    "name": "to",
                    "type": "address"
                },
                {
                    "internalType": "uint256",
                    "name": "tokenId",
                    "type": "uint256"
                },
                {
                    "internalType": "bytes",
                    "name": "data",
                    "type": "bytes"
                }
            ],
            "name": "safeTransferFrom",
            "outputs": [],
            "stateMutability": "nonpayable",
            "type": "function"
        },
        {
            "inputs": [
                {
                    "internalType": "address",
                    "name": "operator",
                    "type": "address"
                },
                {
                    "internalType": "bool",
                    "name": "approved",
                    "type": "bool"
                }
            ],
            "name": "setApprovalForAll",
            "outputs": [],
            "stateMutability": "nonpayable",
            "type": "function"
        },
        {
            "inputs": [
                {
                    "internalType": "bytes4",
                    "name": "interfaceId",
                    "type": "bytes4"
                }
            ],
            "name": "supportsInterface",
            "outputs": [
                {
                    "internalType": "bool",
                    "name": "",
                    "type": "bool"
                }
            ],
            "stateMutability": "view",
            "type": "function"
        },
        {
            "inputs": [],
            "name": "symbol",
            "outputs": [
                {
                    "internalType": "string",
                    "name": "",
                    "type": "string"
                }
            ],
            "stateMutability": "view",
            "type": "function"
        },
        {
            "inputs": [
                {
                    "internalType": "uint256",
                    "name": "tokenId",
                    "type": "uint256"
                }
            ],
            "name": "tokenURI",
            "outputs": [
                {
                    "internalType": "string",
                    "name": "",
                    "type": "string"
                }
            ],
            "stateMutability": "view",
            "type": "function"
        },
        {
            "inputs": [
                {
                    "internalType": "address",
                    "name": "from",
                    "type": "address"
                },
                {
                    "internalType": "address",
                    "name": "to",
                    "type": "address"
                },
                {
                    "internalType": "uint256",
                    "name": "tokenId",
                    "type": "uint256"
                }
            ],
            "name": "transferFrom",
            "outputs": [],
            "stateMutability": "nonpayable",
            "type": "function"
        }
    ],
    "bytecode": "0x60806040523480156200001157600080fd5b506040518060400160405280600b81526020017f4b6579626f6172644e46540000000000000000000000000000000000000000008152506040518060400160405280600381526020017f4b42440000000000000000000000000000000000000000000000000000000000815250816000908051906020019062000096929190620001cf565b508060019080519060200190620000af929190620001cf565b505050620000fd6040518060400160405280601e81526020017f54686973206973206d79204e465420636f6e74726163742e20576f61682100008152506200010360201b62000bfe1760201c565b620003ac565b620001a3816040516024016200011a9190620002c0565b6040516020818303038152906040527f41304fac000000000000000000000000000000000000000000000000000000007bffffffffffffffffffffffffffffffffffffffffffffffffffffffff19166020820180517bffffffffffffffffffffffffffffffffffffffffffffffffffffffff8381831617835250505050620001a660201b60201c565b50565b60008151905060006a636f6e736f6c652e6c6f679050602083016000808483855afa5050505050565b828054620001dd9062000336565b90600052602060002090601f0160209004810192826200020157600085556200024d565b82601f106200021c57805160ff19168380011785556200024d565b828001600101855582156200024d579182015b828111156200024c5782518255916020019190600101906200022f565b5b5090506200025c919062000260565b5090565b5b808211156200027b57600081600090555060010162000261565b5090565b60006200028c82620002e4565b620002988185620002ef565b9350620002aa81856020860162000300565b620002b5816200039b565b840191505092915050565b60006020820190508181036000830152620002dc81846200027f565b905092915050565b600081519050919050565b600082825260208201905092915050565b60005b838110156200032057808201518184015260208101905062000303565b8381111562000330576000848401525b50505050565b600060028204905060018216806200034f57607f821691505b602082108114156200036657620003656200036c565b5b50919050565b7f4e487b7100000000000000000000000000000000000000000000000000000000600052602260045260246000fd5b6000601f19601f8301169050919050565b612ba880620003bc6000396000f3fe608060405234801561001057600080fd5b506004361061010b5760003560e01c80636f0b7871116100a2578063b88d4fde11610071578063b88d4fde146102b8578063c87b56dd146102d4578063de9d132f14610304578063e985e9c51461030e578063f18785a81461033e5761010b565b80636f0b78711461023057806370a082311461024e57806395d89b411461027e578063a22cb4651461029c5761010b565b8063095ea7b3116100de578063095ea7b3146101ac57806323b872dd146101c857806342842e0e146101e45780636352211e146102005761010b565b806301ffc9a714610110578063060475901461014057806306fdde031461015e578063081812fc1461017c575b600080fd5b61012a60048036038101906101259190611dfc565b61035c565b60405161013791906121c2565b60405180910390f35b61014861043e565b60405161015591906123dd565b60405180910390f35b610166610448565b60405161017391906121dd565b60405180910390f35b61019660048036038101906101919190611e4e565b6104da565b6040516101a39190612132565b60405180910390f35b6101c660048036038101906101c19190611dc0565b610520565b005b6101e260048036038101906101dd9190611cba565b610638565b005b6101fe60048036038101906101f99190611cba565b610698565b005b61021a60048036038101906102159190611e4e565b6106b8565b6040516102279190612132565b60405180910390f35b61023861076a565b60405161024591906123dd565b60405180910390f35b61026860048036038101906102639190611c55565b610770565b60405161027591906123dd565b60405180910390f35b610286610828565b60405161029391906121dd565b60405180910390f35b6102b660048036038101906102b19190611d84565b6108ba565b005b6102d260048036038101906102cd9190611d09565b6108d0565b005b6102ee60048036038101906102e99190611e4e565b610932565b6040516102fb91906121dd565b60405180910390f35b61030c610a45565b005b61032860048036038101906103239190611c7e565b610b65565b60405161033591906121c2565b60405180910390f35b610346610bf9565b60405161035391906123dd565b60405180910390f35b60007f80ac58cd000000000000000000000000000000000000000000000000000000007bffffffffffffffffffffffffffffffffffffffffffffffffffffffff1916827bffffffffffffffffffffffffffffffffffffffffffffffffffffffff1916148061042757507f5b5e139f000000000000000000000000000000000000000000000000000000007bffffffffffffffffffffffffffffffffffffffffffffffffffffffff1916827bffffffffffffffffffffffffffffffffffffffffffffffffffffffff1916145b80610437575061043682610c97565b5b9050919050565b6000600854905090565b60606000805461045790612602565b80601f016020809104026020016040519081016040528092919081815260200182805461048390612602565b80156104d05780601f106104a5576101008083540402835291602001916104d0565b820191906000526020600020905b8154815290600101906020018083116104b357829003601f168201915b5050505050905090565b60006104e582610d01565b6004600083815260200190815260200160002060009054906101000a900473ffffffffffffffffffffffffffffffffffffffff169050919050565b600061052b826106b8565b90508073ffffffffffffffffffffffffffffffffffffffff168373ffffffffffffffffffffffffffffffffffffffff16141561059c576040517f08c379a00000000000000000000000000000000000000000000000000000000081526004016105939061237d565b60405180910390fd5b8073ffffffffffffffffffffffffffffffffffffffff166105bb610d4c565b73ffffffffffffffffffffffffffffffffffffffff1614806105ea57506105e9816105e4610d4c565b610b65565b5b610629576040517f08c379a00000000000000000000000000000000000000000000000000000000081526004016106209061231d565b60405180910390fd5b6106338383610d54565b505050565b610649610643610d4c565b82610e0d565b610688576040517f08c379a000000000000000000000000000000000000000000000000000000000815260040161067f9061239d565b60405180910390fd5b610693838383610ea2565b505050565b6106b3838383604051806020016040528060008152506108d0565b505050565b6000806002600084815260200190815260200160002060009054906101000a900473ffffffffffffffffffffffffffffffffffffffff169050600073ffffffffffffffffffffffffffffffffffffffff168173ffffffffffffffffffffffffffffffffffffffff161415610761576040517f08c379a00000000000000000000000000000000000000000000000000000000081526004016107589061235d565b60405180910390fd5b80915050919050565b60085481565b60008073ffffffffffffffffffffffffffffffffffffffff168273ffffffffffffffffffffffffffffffffffffffff1614156107e1576040517f08c379a00000000000000000000000000000000000000000000000000000000081526004016107d8906122dd565b60405180910390fd5b600360008373ffffffffffffffffffffffffffffffffffffffff1673ffffffffffffffffffffffffffffffffffffffff168152602001908152602001600020549050919050565b60606001805461083790612602565b80601f016020809104026020016040519081016040528092919081815260200182805461086390612602565b80156108b05780601f10610885576101008083540402835291602001916108b0565b820191906000526020600020905b81548152906001019060200180831161089357829003601f168201915b5050505050905090565b6108cc6108c5610d4c565b8383611109565b5050565b6108e16108db610d4c565b83610e0d565b610920576040517f08c379a00000000000000000000000000000000000000000000000000000000081526004016109179061239d565b60405180910390fd5b61092c84848484611276565b50505050565b606061093d82610d01565b600060066000848152602001908152602001600020805461095d90612602565b80601f016020809104026020016040519081016040528092919081815260200182805461098990612602565b80156109d65780601f106109ab576101008083540402835291602001916109d6565b820191906000526020600020905b8154815290600101906020018083116109b957829003601f168201915b5050505050905060006109e76112d2565b90506000815114156109fd578192505050610a40565b600082511115610a32578082604051602001610a1a92919061210e565b60405160208183030381529060405292505050610a40565b610a3b846112e9565b925050505b919050565b6000610a516007611351565b9050600160086000828254610a669190612491565b9250508190555060466008541115610ab3576040517f08c379a0000000000000000000000000000000000000000000000000000000008152600401610aaa906123bd565b60405180910390fd5b610abd338261135f565b610afc816040518060400160405280601d81526020017f68747470733a2f2f6a736f6e6b65657065722e636f6d2f622f334a444200000081525061137d565b610b1f604051806060016040528060258152602001612b4e6025913982336113f1565b610b296007611490565b7febb98688741ffa4c7589bf325de30cf7becb63de567842e1ccdb6cb949fdc82c3382604051610b5a929190612199565b60405180910390a150565b6000600560008473ffffffffffffffffffffffffffffffffffffffff1673ffffffffffffffffffffffffffffffffffffffff16815260200190815260200160002060008373ffffffffffffffffffffffffffffffffffffffff1673ffffffffffffffffffffffffffffffffffffffff16815260200190815260200160002060009054906101000a900460ff16905092915050565b604681565b610c9481604051602401610c1291906121dd565b6040516020818303038152906040527f41304fac000000000000000000000000000000000000000000000000000000007bffffffffffffffffffffffffffffffffffffffffffffffffffffffff19166020820180517bffffffffffffffffffffffffffffffffffffffffffffffffffffffff83818316178352505050506114a6565b50565b60007f01ffc9a7000000000000000000000000000000000000000000000000000000007bffffffffffffffffffffffffffffffffffffffffffffffffffffffff1916827bffffffffffffffffffffffffffffffffffffffffffffffffffffffff1916149050919050565b610d0a816114cf565b610d49576040517f08c379a0000000000000000000000000000000000000000000000000000000008152600401610d409061235d565b60405180910390fd5b50565b600033905090565b816004600083815260200190815260200160002060006101000a81548173ffffffffffffffffffffffffffffffffffffffff021916908373ffffffffffffffffffffffffffffffffffffffff160217905550808273ffffffffffffffffffffffffffffffffffffffff16610dc7836106b8565b73ffffffffffffffffffffffffffffffffffffffff167f8c5be1e5ebec7d5bd14f71427d1e84f3dd0314c0f7b2291e5b200ac8c7c3b92560405160405180910390a45050565b600080610e19836106b8565b90508073ffffffffffffffffffffffffffffffffffffffff168473ffffffffffffffffffffffffffffffffffffffff161480610e5b5750610e5a8185610b65565b5b80610e9957508373ffffffffffffffffffffffffffffffffffffffff16610e81846104da565b73ffffffffffffffffffffffffffffffffffffffff16145b91505092915050565b8273ffffffffffffffffffffffffffffffffffffffff16610ec2826106b8565b73ffffffffffffffffffffffffffffffffffffffff1614610f18576040517f08c379a0000000000000000000000000000000000000000000000000000000008152600401610f0f9061225d565b60405180910390fd5b600073ffffffffffffffffffffffffffffffffffffffff168273ffffffffffffffffffffffffffffffffffffffff161415610f88576040517f08c379a0000000000000000000000000000000000000000000000000000000008152600401610f7f9061229d565b60405180910390fd5b610f9383838361153b565b610f9e600082610d54565b6001600360008573ffffffffffffffffffffffffffffffffffffffff1673ffffffffffffffffffffffffffffffffffffffff1681526020019081526020016000206000828254610fee9190612518565b925050819055506001600360008473ffffffffffffffffffffffffffffffffffffffff1673ffffffffffffffffffffffffffffffffffffffff16815260200190815260200160002060008282546110459190612491565b92505081905550816002600083815260200190815260200160002060006101000a81548173ffffffffffffffffffffffffffffffffffffffff021916908373ffffffffffffffffffffffffffffffffffffffff160217905550808273ffffffffffffffffffffffffffffffffffffffff168473ffffffffffffffffffffffffffffffffffffffff167fddf252ad1be2c89b69c2b068fc378daa952ba7f163c4a11628f55a4df523b3ef60405160405180910390a4611104838383611540565b505050565b8173ffffffffffffffffffffffffffffffffffffffff168373ffffffffffffffffffffffffffffffffffffffff161415611178576040517f08c379a000000000000000000000000000000000000000000000000000000000815260040161116f906122bd565b60405180910390fd5b80600560008573ffffffffffffffffffffffffffffffffffffffff1673ffffffffffffffffffffffffffffffffffffffff16815260200190815260200160002060008473ffffffffffffffffffffffffffffffffffffffff1673ffffffffffffffffffffffffffffffffffffffff16815260200190815260200160002060006101000a81548160ff0219169083151502179055508173ffffffffffffffffffffffffffffffffffffffff168373ffffffffffffffffffffffffffffffffffffffff167f17307eab39ab6107e8899845ad3d59bd9653f200f220920489ca2b5937696c318360405161126991906121c2565b60405180910390a3505050565b611281848484610ea2565b61128d84848484611545565b6112cc576040517f08c379a00000000000000000000000000000000000000000000000000000000081526004016112c39061223d565b60405180910390fd5b50505050565b606060405180602001604052806000815250905090565b60606112f482610d01565b60006112fe6112d2565b9050600081511161131e5760405180602001604052806000815250611349565b80611328846116dc565b60405160200161133992919061210e565b6040516020818303038152906040525b915050919050565b600081600001549050919050565b611379828260405180602001604052806000815250611889565b5050565b611386826114cf565b6113c5576040517f08c379a00000000000000000000000000000000000000000000000000000000081526004016113bc906122fd565b60405180910390fd5b806006600084815260200190815260200160002090805190602001906113ec929190611ae1565b505050565b61148b838383604051602401611409939291906121ff565b6040516020818303038152906040527fe3849f79000000000000000000000000000000000000000000000000000000007bffffffffffffffffffffffffffffffffffffffffffffffffffffffff19166020820180517bffffffffffffffffffffffffffffffffffffffffffffffffffffffff83818316178352505050506114a6565b505050565b6001816000016000828254019250508190555050565b60008151905060006a636f6e736f6c652e6c6f679050602083016000808483855afa5050505050565b60008073ffffffffffffffffffffffffffffffffffffffff166002600084815260200190815260200160002060009054906101000a900473ffffffffffffffffffffffffffffffffffffffff1673ffffffffffffffffffffffffffffffffffffffff1614159050919050565b505050565b505050565b60006115668473ffffffffffffffffffffffffffffffffffffffff166118e4565b156116cf578373ffffffffffffffffffffffffffffffffffffffff1663150b7a0261158f610d4c565b8786866040518563ffffffff1660e01b81526004016115b1949392919061214d565b602060405180830381600087803b1580156115cb57600080fd5b505af19250505080156115fc57506040513d601f19601f820116820180604052508101906115f99190611e25565b60015b61167f573d806000811461162c576040519150601f19603f3d011682016040523d82523d6000602084013e611631565b606091505b50600081511415611677576040517f08c379a000000000000000000000000000000000000000000000000000000000815260040161166e9061223d565b60405180910390fd5b805181602001fd5b63150b7a0260e01b7bffffffffffffffffffffffffffffffffffffffffffffffffffffffff1916817bffffffffffffffffffffffffffffffffffffffffffffffffffffffff1916149150506116d4565b600190505b949350505050565b60606000821415611724576040518060400160405280600181526020017f30000000000000000000000000000000000000000000000000000000000000008152509050611884565b600082905060005b6000821461175657808061173f90612665565b915050600a8261174f91906124e7565b915061172c565b60008167ffffffffffffffff811115611798577f4e487b7100000000000000000000000000000000000000000000000000000000600052604160045260246000fd5b6040519080825280601f01601f1916602001820160405280156117ca5781602001600182028036833780820191505090505b5090505b6000851461187d576001826117e39190612518565b9150600a856117f291906126ae565b60306117fe9190612491565b60f81b81838151811061183a577f4e487b7100000000000000000000000000000000000000000000000000000000600052603260045260246000fd5b60200101907effffffffffffffffffffffffffffffffffffffffffffffffffffffffffffff1916908160001a905350600a8561187691906124e7565b94506117ce565b8093505050505b919050565b6118938383611907565b6118a06000848484611545565b6118df576040517f08c379a00000000000000000000000000000000000000000000000000000000081526004016118d69061223d565b60405180910390fd5b505050565b6000808273ffffffffffffffffffffffffffffffffffffffff163b119050919050565b600073ffffffffffffffffffffffffffffffffffffffff168273ffffffffffffffffffffffffffffffffffffffff161415611977576040517f08c379a000000000000000000000000000000000000000000000000000000000815260040161196e9061233d565b60405180910390fd5b611980816114cf565b156119c0576040517f08c379a00000000000000000000000000000000000000000000000000000000081526004016119b79061227d565b60405180910390fd5b6119cc6000838361153b565b6001600360008473ffffffffffffffffffffffffffffffffffffffff1673ffffffffffffffffffffffffffffffffffffffff1681526020019081526020016000206000828254611a1c9190612491565b92505081905550816002600083815260200190815260200160002060006101000a81548173ffffffffffffffffffffffffffffffffffffffff021916908373ffffffffffffffffffffffffffffffffffffffff160217905550808273ffffffffffffffffffffffffffffffffffffffff16600073ffffffffffffffffffffffffffffffffffffffff167fddf252ad1be2c89b69c2b068fc378daa952ba7f163c4a11628f55a4df523b3ef60405160405180910390a4611add60008383611540565b5050565b828054611aed90612602565b90600052602060002090601f016020900481019282611b0f5760008555611b56565b82601f10611b2857805160ff1916838001178555611b56565b82800160010185558215611b56579182015b82811115611b55578251825591602001919060010190611b3a565b5b509050611b639190611b67565b5090565b5b80821115611b80576000816000905550600101611b68565b5090565b6000611b97611b928461241d565b6123f8565b905082815260208101848484011115611baf57600080fd5b611bba8482856125c0565b509392505050565b600081359050611bd181612af1565b92915050565b600081359050611be681612b08565b92915050565b600081359050611bfb81612b1f565b92915050565b600081519050611c1081612b1f565b92915050565b600082601f830112611c2757600080fd5b8135611c37848260208601611b84565b91505092915050565b600081359050611c4f81612b36565b92915050565b600060208284031215611c6757600080fd5b6000611c7584828501611bc2565b91505092915050565b60008060408385031215611c9157600080fd5b6000611c9f85828601611bc2565b9250506020611cb085828601611bc2565b9150509250929050565b600080600060608486031215611ccf57600080fd5b6000611cdd86828701611bc2565b9350506020611cee86828701611bc2565b9250506040611cff86828701611c40565b9150509250925092565b60008060008060808587031215611d1f57600080fd5b6000611d2d87828801611bc2565b9450506020611d3e87828801611bc2565b9350506040611d4f87828801611c40565b925050606085013567ffffffffffffffff811115611d6c57600080fd5b611d7887828801611c16565b91505092959194509250565b60008060408385031215611d9757600080fd5b6000611da585828601611bc2565b9250506020611db685828601611bd7565b9150509250929050565b60008060408385031215611dd357600080fd5b6000611de185828601611bc2565b9250506020611df285828601611c40565b9150509250929050565b600060208284031215611e0e57600080fd5b6000611e1c84828501611bec565b91505092915050565b600060208284031215611e3757600080fd5b6000611e4584828501611c01565b91505092915050565b600060208284031215611e6057600080fd5b6000611e6e84828501611c40565b91505092915050565b611e808161254c565b82525050565b611e8f8161255e565b82525050565b6000611ea08261244e565b611eaa8185612464565b9350611eba8185602086016125cf565b611ec38161279b565b840191505092915050565b6000611ed982612459565b611ee38185612475565b9350611ef38185602086016125cf565b611efc8161279b565b840191505092915050565b6000611f1282612459565b611f1c8185612486565b9350611f2c8185602086016125cf565b80840191505092915050565b6000611f45603283612475565b9150611f50826127ac565b604082019050919050565b6000611f68602583612475565b9150611f73826127fb565b604082019050919050565b6000611f8b601c83612475565b9150611f968261284a565b602082019050919050565b6000611fae602483612475565b9150611fb982612873565b604082019050919050565b6000611fd1601983612475565b9150611fdc826128c2565b602082019050919050565b6000611ff4602983612475565b9150611fff826128eb565b604082019050919050565b6000612017602e83612475565b91506120228261293a565b604082019050919050565b600061203a603e83612475565b915061204582612989565b604082019050919050565b600061205d602083612475565b9150612068826129d8565b602082019050919050565b6000612080601883612475565b915061208b82612a01565b602082019050919050565b60006120a3602183612475565b91506120ae82612a2a565b604082019050919050565b60006120c6602e83612475565b91506120d182612a79565b604082019050919050565b60006120e9601183612475565b91506120f482612ac8565b602082019050919050565b612108816125b6565b82525050565b600061211a8285611f07565b91506121268284611f07565b91508190509392505050565b60006020820190506121476000830184611e77565b92915050565b60006080820190506121626000830187611e77565b61216f6020830186611e77565b61217c60408301856120ff565b818103606083015261218e8184611e95565b905095945050505050565b60006040820190506121ae6000830185611e77565b6121bb60208301846120ff565b9392505050565b60006020820190506121d76000830184611e86565b92915050565b600060208201905081810360008301526121f78184611ece565b905092915050565b600060608201905081810360008301526122198186611ece565b905061222860208301856120ff565b6122356040830184611e77565b949350505050565b6000602082019050818103600083015261225681611f38565b9050919050565b6000602082019050818103600083015261227681611f5b565b9050919050565b6000602082019050818103600083015261229681611f7e565b9050919050565b600060208201905081810360008301526122b681611fa1565b9050919050565b600060208201905081810360008301526122d681611fc4565b9050919050565b600060208201905081810360008301526122f681611fe7565b9050919050565b600060208201905081810360008301526123168161200a565b9050919050565b600060208201905081810360008301526123368161202d565b9050919050565b6000602082019050818103600083015261235681612050565b9050919050565b6000602082019050818103600083015261237681612073565b9050919050565b6000602082019050818103600083015261239681612096565b9050919050565b600060208201905081810360008301526123b6816120b9565b9050919050565b600060208201905081810360008301526123d6816120dc565b9050919050565b60006020820190506123f260008301846120ff565b92915050565b6000612402612413565b905061240e8282612634565b919050565b6000604051905090565b600067ffffffffffffffff8211156124385761243761276c565b5b6124418261279b565b9050602081019050919050565b600081519050919050565b600081519050919050565b600082825260208201905092915050565b600082825260208201905092915050565b600081905092915050565b600061249c826125b6565b91506124a7836125b6565b9250827fffffffffffffffffffffffffffffffffffffffffffffffffffffffffffffffff038211156124dc576124db6126df565b5b828201905092915050565b60006124f2826125b6565b91506124fd836125b6565b92508261250d5761250c61270e565b5b828204905092915050565b6000612523826125b6565b915061252e836125b6565b925082821015612541576125406126df565b5b828203905092915050565b600061255782612596565b9050919050565b60008115159050919050565b60007fffffffff0000000000000000000000000000000000000000000000000000000082169050919050565b600073ffffffffffffffffffffffffffffffffffffffff82169050919050565b6000819050919050565b82818337600083830152505050565b60005b838110156125ed5780820151818401526020810190506125d2565b838111156125fc576000848401525b50505050565b6000600282049050600182168061261a57607f821691505b6020821081141561262e5761262d61273d565b5b50919050565b61263d8261279b565b810181811067ffffffffffffffff8211171561265c5761265b61276c565b5b80604052505050565b6000612670826125b6565b91507fffffffffffffffffffffffffffffffffffffffffffffffffffffffffffffffff8214156126a3576126a26126df565b5b600182019050919050565b60006126b9826125b6565b91506126c4836125b6565b9250826126d4576126d361270e565b5b828206905092915050565b7f4e487b7100000000000000000000000000000000000000000000000000000000600052601160045260246000fd5b7f4e487b7100000000000000000000000000000000000000000000000000000000600052601260045260246000fd5b7f4e487b7100000000000000000000000000000000000000000000000000000000600052602260045260246000fd5b7f4e487b7100000000000000000000000000000000000000000000000000000000600052604160045260246000fd5b6000601f19601f8301169050919050565b7f4552433732313a207472616e7366657220746f206e6f6e20455243373231526560008201527f63656976657220696d706c656d656e7465720000000000000000000000000000602082015250565b7f4552433732313a207472616e736665722066726f6d20696e636f72726563742060008201527f6f776e6572000000000000000000000000000000000000000000000000000000602082015250565b7f4552433732313a20746f6b656e20616c7265616479206d696e74656400000000600082015250565b7f4552433732313a207472616e7366657220746f20746865207a65726f2061646460008201527f7265737300000000000000000000000000000000000000000000000000000000602082015250565b7f4552433732313a20617070726f766520746f2063616c6c657200000000000000600082015250565b7f4552433732313a2061646472657373207a65726f206973206e6f74206120766160008201527f6c6964206f776e65720000000000000000000000000000000000000000000000602082015250565b7f45524337323155524953746f726167653a2055524920736574206f66206e6f6e60008201527f6578697374656e7420746f6b656e000000000000000000000000000000000000602082015250565b7f4552433732313a20617070726f76652063616c6c6572206973206e6f7420746f60008201527f6b656e206f776e6572206e6f7220617070726f76656420666f7220616c6c0000602082015250565b7f4552433732313a206d696e7420746f20746865207a65726f2061646472657373600082015250565b7f4552433732313a20696e76616c696420746f6b656e2049440000000000000000600082015250565b7f4552433732313a20617070726f76616c20746f2063757272656e74206f776e6560008201527f7200000000000000000000000000000000000000000000000000000000000000602082015250565b7f4552433732313a2063616c6c6572206973206e6f7420746f6b656e206f776e6560008201527f72206e6f7220617070726f766564000000000000000000000000000000000000602082015250565b7f494e56414c49445f4e46545f494e444558000000000000000000000000000000600082015250565b612afa8161254c565b8114612b0557600080fd5b50565b612b118161255e565b8114612b1c57600080fd5b50565b612b288161256a565b8114612b3357600080fd5b50565b612b3f816125b6565b8114612b4a57600080fd5b5056fe416e204e465420772f20494420257320686173206265656e206d696e74656420746f202573a2646970667358221220a98ae2cc8e9fff676cf7ddf177915f757f350ffca45a11f1b25f731f752b9bbb64736f6c63430008010033",
    "linkReferences": {},
    "deployedLinkReferences": {}
}